{
  "contractName": "Lottery",
  "abi": [
    {
      "inputs": [],
      "stateMutability": "nonpayable",
      "type": "constructor"
    },
    {
      "inputs": [],
      "name": "manager",
      "outputs": [
        {
          "internalType": "address",
          "name": "",
          "type": "address"
        }
      ],
      "stateMutability": "view",
      "type": "function",
      "constant": true
    },
    {
      "inputs": [
        {
          "internalType": "uint256",
          "name": "",
          "type": "uint256"
        }
      ],
      "name": "players",
      "outputs": [
        {
          "internalType": "address payable",
          "name": "",
          "type": "address"
        }
      ],
      "stateMutability": "view",
      "type": "function",
      "constant": true
    },
    {
      "inputs": [
        {
          "internalType": "uint256",
          "name": "",
          "type": "uint256"
        }
      ],
      "name": "winners",
      "outputs": [
        {
          "internalType": "address",
          "name": "",
          "type": "address"
        }
      ],
      "stateMutability": "view",
      "type": "function",
      "constant": true
    },
    {
      "inputs": [],
      "name": "enter",
      "outputs": [],
      "stateMutability": "payable",
      "type": "function",
      "payable": true
    },
    {
      "inputs": [],
      "name": "pickWinner",
      "outputs": [],
      "stateMutability": "nonpayable",
      "type": "function"
    },
    {
      "inputs": [],
      "name": "getBalance",
      "outputs": [
        {
          "internalType": "uint256",
          "name": "",
          "type": "uint256"
        }
      ],
      "stateMutability": "view",
      "type": "function",
      "constant": true
    },
    {
      "inputs": [],
      "name": "getPlayers",
      "outputs": [
        {
          "internalType": "address payable[]",
          "name": "",
          "type": "address[]"
        }
      ],
      "stateMutability": "view",
      "type": "function",
      "constant": true
    },
    {
      "inputs": [],
      "name": "getWinners",
      "outputs": [
        {
          "internalType": "address[]",
          "name": "",
          "type": "address[]"
        }
      ],
      "stateMutability": "view",
      "type": "function",
      "constant": true
    }
  ],
  "bytecode": "0x608060405234801561001057600080fd5b50336000806101000a81548173ffffffffffffffffffffffffffffffffffffffff021916908373ffffffffffffffffffffffffffffffffffffffff160217905550610b70806100606000396000f3fe60806040526004361061007b5760003560e01c8063a2fb11751161004e578063a2fb117514610118578063df15c37e14610155578063e97dcb6214610180578063f71d96cb1461018a5761007b565b806312065fe014610080578063481c6a75146100ab5780635d495aea146100d65780638b5b9ccc146100ed575b600080fd5b34801561008c57600080fd5b506100956101c7565b6040516100a29190610716565b60405180910390f35b3480156100b757600080fd5b506100c06101cf565b6040516100cd9190610772565b60405180910390f35b3480156100e257600080fd5b506100eb6101f3565b005b3480156100f957600080fd5b506101026103f0565b60405161010f919061085d565b60405180910390f35b34801561012457600080fd5b5061013f600480360381019061013a91906108b0565b61047e565b60405161014c9190610772565b60405180910390f35b34801561016157600080fd5b5061016a6104bd565b604051610177919061099b565b60405180910390f35b61018861054b565b005b34801561019657600080fd5b506101b160048036038101906101ac91906108b0565b6105c3565b6040516101be91906109cc565b60405180910390f35b600047905090565b60008054906101000a900473ffffffffffffffffffffffffffffffffffffffff1681565b60008054906101000a900473ffffffffffffffffffffffffffffffffffffffff1673ffffffffffffffffffffffffffffffffffffffff163373ffffffffffffffffffffffffffffffffffffffff161461024b57600080fd5b600060018054905061025b610602565b6102659190610a16565b90506001818154811061027b5761027a610a47565b5b9060005260206000200160009054906101000a900473ffffffffffffffffffffffffffffffffffffffff1673ffffffffffffffffffffffffffffffffffffffff166108fc479081150290604051600060405180830381858888f193505050501580156102eb573d6000803e3d6000fd5b5060026001828154811061030257610301610a47565b5b9060005260206000200160009054906101000a900473ffffffffffffffffffffffffffffffffffffffff169080600181540180825580915050600190039060005260206000200160009091909190916101000a81548173ffffffffffffffffffffffffffffffffffffffff021916908373ffffffffffffffffffffffffffffffffffffffff160217905550600067ffffffffffffffff8111156103a8576103a7610a76565b5b6040519080825280602002602001820160405280156103d65781602001602082028036833780820191505090505b50600190805190602001906103ec929190610656565b5050565b6060600180548060200260200160405190810160405280929190818152602001828054801561047457602002820191906000526020600020905b8160009054906101000a900473ffffffffffffffffffffffffffffffffffffffff1673ffffffffffffffffffffffffffffffffffffffff168152602001906001019080831161042a575b5050505050905090565b6002818154811061048e57600080fd5b906000526020600020016000915054906101000a900473ffffffffffffffffffffffffffffffffffffffff1681565b6060600280548060200260200160405190810160405280929190818152602001828054801561054157602002820191906000526020600020905b8160009054906101000a900473ffffffffffffffffffffffffffffffffffffffff1673ffffffffffffffffffffffffffffffffffffffff16815260200190600101908083116104f7575b5050505050905090565b662386f26fc10000341161055e57600080fd5b6001339080600181540180825580915050600190039060005260206000200160009091909190916101000a81548173ffffffffffffffffffffffffffffffffffffffff021916908373ffffffffffffffffffffffffffffffffffffffff160217905550565b600181815481106105d357600080fd5b906000526020600020016000915054906101000a900473ffffffffffffffffffffffffffffffffffffffff1681565b60008060009054906101000a900473ffffffffffffffffffffffffffffffffffffffff1642604051602001610638929190610b0e565b6040516020818303038152906040528051906020012060001c905090565b8280548282559060005260206000209081019282156106cf579160200282015b828111156106ce5782518260006101000a81548173ffffffffffffffffffffffffffffffffffffffff021916908373ffffffffffffffffffffffffffffffffffffffff16021790555091602001919060010190610676565b5b5090506106dc91906106e0565b5090565b5b808211156106f95760008160009055506001016106e1565b5090565b6000819050919050565b610710816106fd565b82525050565b600060208201905061072b6000830184610707565b92915050565b600073ffffffffffffffffffffffffffffffffffffffff82169050919050565b600061075c82610731565b9050919050565b61076c81610751565b82525050565b60006020820190506107876000830184610763565b92915050565b600081519050919050565b600082825260208201905092915050565b6000819050602082019050919050565b60006107c482610731565b9050919050565b6107d4816107b9565b82525050565b60006107e683836107cb565b60208301905092915050565b6000602082019050919050565b600061080a8261078d565b6108148185610798565b935061081f836107a9565b8060005b8381101561085057815161083788826107da565b9750610842836107f2565b925050600181019050610823565b5085935050505092915050565b6000602082019050818103600083015261087781846107ff565b905092915050565b600080fd5b61088d816106fd565b811461089857600080fd5b50565b6000813590506108aa81610884565b92915050565b6000602082840312156108c6576108c561087f565b5b60006108d48482850161089b565b91505092915050565b600081519050919050565b600082825260208201905092915050565b6000819050602082019050919050565b61091281610751565b82525050565b60006109248383610909565b60208301905092915050565b6000602082019050919050565b6000610948826108dd565b61095281856108e8565b935061095d836108f9565b8060005b8381101561098e5781516109758882610918565b975061098083610930565b925050600181019050610961565b5085935050505092915050565b600060208201905081810360008301526109b5818461093d565b905092915050565b6109c6816107b9565b82525050565b60006020820190506109e160008301846109bd565b92915050565b7f4e487b7100000000000000000000000000000000000000000000000000000000600052601260045260246000fd5b6000610a21826106fd565b9150610a2c836106fd565b925082610a3c57610a3b6109e7565b5b828206905092915050565b7f4e487b7100000000000000000000000000000000000000000000000000000000600052603260045260246000fd5b7f4e487b7100000000000000000000000000000000000000000000000000000000600052604160045260246000fd5b60008160601b9050919050565b6000610abd82610aa5565b9050919050565b6000610acf82610ab2565b9050919050565b610ae7610ae282610751565b610ac4565b82525050565b6000819050919050565b610b08610b03826106fd565b610aed565b82525050565b6000610b1a8285610ad6565b601482019150610b2a8284610af7565b602082019150819050939250505056fea26469706673582212206907d8f59dea9cf3db03b30976a13ef13984a22f060c41febc4e643ec57d37d664736f6c63430008120033",
  "immutableReferences": {},
  "source": "// SPDX-License-Identifier: GPL-3.0\r\npragma solidity ^0.8.18;\r\n\r\ncontract Lottery {\r\n    address public manager;\r\n    address payable[] public players;\r\n    address[] public winners; \r\n    \r\n    constructor(){\r\n        manager = msg.sender;\r\n    }\r\n    \r\n    function enter() public payable {\r\n        require(msg.value > .01 ether);\r\n        players.push(payable(msg.sender));\r\n    }\r\n    \r\n    function random() private view returns (uint) {\r\n        return uint(keccak256(abi.encodePacked(manager, block.timestamp)));\r\n    }\r\n    \r\n    function pickWinner() public {\r\n        require( msg.sender==manager );\r\n        uint index = random() % players.length;\r\n        players[index].transfer( address(this).balance); \r\n        winners.push(players[index]); \r\n\r\n        //Clear the playes array to start new lottery\r\n        players = new address payable[](0);\r\n    }\r\n    \r\n    modifier restricted() {\r\n        require(msg.sender == manager);\r\n        _;\r\n    }\r\n    function getBalance() public view returns (uint){\r\n        // Solidity works in Wei\r\n        return address(this).balance; \r\n    }\r\n\r\n    function getPlayers()  public view returns (address payable[] memory) {\r\n        return players;\r\n    }\r\n\r\n    function getWinners() public view returns(address[] memory){\r\n        return winners;\r\n    }\r\n}   ",
  "sourcePath": "E:\\Course\\BlockChain-Ethereum and Solidity-The Complete Developers Guide\\Front-End\\lottery-react\\backend\\contracts\\Lottery.sol",
  "compiler": {
    "name": "solc",
    "version": "0.8.18+commit.87f61d96.Emscripten.clang"
  },
  "schemaVersion": "3.4.12",
  "updatedAt": "2023-03-02T18:55:48.483Z",
  "networkType": "ethereum",
  "devdoc": {
    "kind": "dev",
    "methods": {},
    "version": 1
  },
  "userdoc": {
    "kind": "user",
    "methods": {},
    "version": 1
  }
}